{
  "contractName": "FilesStorage",
  "abi": [
    {
      "inputs": [],
      "payable": false,
      "stateMutability": "nonpayable",
      "type": "constructor"
    },
    {
      "constant": false,
      "inputs": [
        {
          "internalType": "string",
          "name": "name",
          "type": "string"
        }
      ],
      "name": "registerEntity",
      "outputs": [],
      "payable": false,
      "stateMutability": "nonpayable",
      "type": "function"
    },
    {
      "constant": false,
      "inputs": [
        {
          "internalType": "address",
          "name": "entityAddress",
          "type": "address"
        }
      ],
      "name": "approveEntity",
      "outputs": [],
      "payable": false,
      "stateMutability": "nonpayable",
      "type": "function"
    },
    {
      "constant": false,
      "inputs": [],
      "name": "getAllEntities",
      "outputs": [
        {
          "components": [
            {
              "internalType": "string",
              "name": "name",
              "type": "string"
            },
            {
              "internalType": "address",
              "name": "entityAddress",
              "type": "address"
            },
            {
              "internalType": "bool",
              "name": "approved",
              "type": "bool"
            },
            {
              "internalType": "bool",
              "name": "exists",
              "type": "bool"
            }
          ],
          "internalType": "struct FilesStorage.entity[]",
          "name": "",
          "type": "tuple[]"
        }
      ],
      "payable": false,
      "stateMutability": "nonpayable",
      "type": "function"
    },
    {
      "constant": false,
      "inputs": [],
      "name": "isOwner",
      "outputs": [
        {
          "internalType": "bool",
          "name": "",
          "type": "bool"
        }
      ],
      "payable": false,
      "stateMutability": "nonpayable",
      "type": "function"
    },
    {
      "constant": false,
      "inputs": [],
      "name": "isApprovedEntity",
      "outputs": [
        {
          "internalType": "bool",
          "name": "",
          "type": "bool"
        }
      ],
      "payable": false,
      "stateMutability": "nonpayable",
      "type": "function"
    },
    {
      "constant": false,
      "inputs": [],
      "name": "getMyEntityName",
      "outputs": [
        {
          "internalType": "string",
          "name": "",
          "type": "string"
        }
      ],
      "payable": false,
      "stateMutability": "nonpayable",
      "type": "function"
    },
    {
      "constant": false,
      "inputs": [
        {
          "internalType": "string",
          "name": "hashValue",
          "type": "string"
        },
        {
          "internalType": "string",
          "name": "title",
          "type": "string"
        },
        {
          "internalType": "string",
          "name": "CID",
          "type": "string"
        }
      ],
      "name": "registerInforme",
      "outputs": [],
      "payable": false,
      "stateMutability": "nonpayable",
      "type": "function"
    },
    {
      "constant": true,
      "inputs": [
        {
          "internalType": "string",
          "name": "hashValue",
          "type": "string"
        }
      ],
      "name": "getInforme",
      "outputs": [
        {
          "components": [
            {
              "components": [
                {
                  "internalType": "string",
                  "name": "title",
                  "type": "string"
                },
                {
                  "internalType": "string",
                  "name": "hashValue",
                  "type": "string"
                },
                {
                  "internalType": "string",
                  "name": "CID",
                  "type": "string"
                },
                {
                  "internalType": "address",
                  "name": "owner",
                  "type": "address"
                },
                {
                  "internalType": "bool",
                  "name": "exists",
                  "type": "bool"
                }
              ],
              "internalType": "struct FilesStorage.informeData",
              "name": "informe",
              "type": "tuple"
            },
            {
              "internalType": "string",
              "name": "entidad",
              "type": "string"
            }
          ],
          "internalType": "struct FilesStorage.informeRet",
          "name": "",
          "type": "tuple"
        }
      ],
      "payable": false,
      "stateMutability": "view",
      "type": "function"
    },
    {
      "constant": true,
      "inputs": [],
      "name": "getAllInformes",
      "outputs": [
        {
          "components": [
            {
              "components": [
                {
                  "internalType": "string",
                  "name": "title",
                  "type": "string"
                },
                {
                  "internalType": "string",
                  "name": "hashValue",
                  "type": "string"
                },
                {
                  "internalType": "string",
                  "name": "CID",
                  "type": "string"
                },
                {
                  "internalType": "address",
                  "name": "owner",
                  "type": "address"
                },
                {
                  "internalType": "bool",
                  "name": "exists",
                  "type": "bool"
                }
              ],
              "internalType": "struct FilesStorage.informeData",
              "name": "informe",
              "type": "tuple"
            },
            {
              "internalType": "string",
              "name": "entidad",
              "type": "string"
            }
          ],
          "internalType": "struct FilesStorage.informeRet[]",
          "name": "",
          "type": "tuple[]"
        }
      ],
      "payable": false,
      "stateMutability": "view",
      "type": "function"
    }
  ],
  "bytecode": "0x608060405234801561001057600080fd5b5033600560006101000a81548173ffffffffffffffffffffffffffffffffffffffff021916908373ffffffffffffffffffffffffffffffffffffffff160217905550611f2a806100616000396000f3fe608060405234801561001057600080fd5b50600436106100935760003560e01c80637e69dae0116100665780637e69dae01461011e5780638f32d59b1461013c578063a2627e4b1461015a578063d9a9a51c14610178578063e6e951a31461019457610093565b806303d49890146100985780631d230097146100b657806354e200e5146100e6578063679352fd14610102575b600080fd5b6100a06101b2565b6040516100ad9190611cd2565b60405180910390f35b6100d060048036036100cb9190810190611806565b610209565b6040516100dd9190611d0f565b60405180910390f35b61010060048036036100fb91908101906117c1565b6105cd565b005b61011c60048036036101179190810190611798565b6107c0565b005b610126610879565b6040516101339190611c8e565b60405180910390f35b610144610aa6565b6040516101519190611cd2565b60405180910390f35b610162610afe565b60405161016f9190611ced565b60405180910390f35b610192600480360361018d9190810190611847565b610be0565b005b61019c610e55565b6040516101a99190611cb0565b60405180910390f35b6000600460003373ffffffffffffffffffffffffffffffffffffffff1673ffffffffffffffffffffffffffffffffffffffff16815260200190815260200160002060010160149054906101000a900460ff16905090565b610211611430565b610219611430565b6000836040516102299190611c77565b90815260200160405180910390206040518060a0016040529081600082018054600181600116156101000203166002900480601f0160208091040260200160405190810160405280929190818152602001828054600181600116156101000203166002900480156102db5780601f106102b0576101008083540402835291602001916102db565b820191906000526020600020905b8154815290600101906020018083116102be57829003601f168201915b50505050508152602001600182018054600181600116156101000203166002900480601f01602080910402602001604051908101604052809291908181526020018280546001816001161561010002031660029004801561037d5780601f106103525761010080835404028352916020019161037d565b820191906000526020600020905b81548152906001019060200180831161036057829003601f168201915b50505050508152602001600282018054600181600116156101000203166002900480601f01602080910402602001604051908101604052809291908181526020018280546001816001161561010002031660029004801561041f5780601f106103f45761010080835404028352916020019161041f565b820191906000526020600020905b81548152906001019060200180831161040257829003601f168201915b505050505081526020016003820160009054906101000a900473ffffffffffffffffffffffffffffffffffffffff1673ffffffffffffffffffffffffffffffffffffffff1673ffffffffffffffffffffffffffffffffffffffff1681526020016003820160149054906101000a900460ff16151515158152505081600001819052506004600080856040516104b49190611c77565b908152602001604051809103902060030160009054906101000a900473ffffffffffffffffffffffffffffffffffffffff1673ffffffffffffffffffffffffffffffffffffffff1673ffffffffffffffffffffffffffffffffffffffff1681526020019081526020016000206000018054600181600116156101000203166002900480601f0160208091040260200160405190810160405280929190818152602001828054600181600116156101000203166002900480156105b75780601f1061058c576101008083540402835291602001916105b7565b820191906000526020600020905b81548152906001019060200180831161059a57829003601f168201915b5050505050816020018190525080915050919050565b600460003373ffffffffffffffffffffffffffffffffffffffff1673ffffffffffffffffffffffffffffffffffffffff16815260200190815260200160002060010160159054906101000a900460ff1615610627576107bc565b6001600460003373ffffffffffffffffffffffffffffffffffffffff1673ffffffffffffffffffffffffffffffffffffffff16815260200190815260200160002060010160156101000a81548160ff0219169083151502179055508181600460003373ffffffffffffffffffffffffffffffffffffffff1673ffffffffffffffffffffffffffffffffffffffff16815260200190815260200160002060000191906106d3929190611450565b5033600460003373ffffffffffffffffffffffffffffffffffffffff1673ffffffffffffffffffffffffffffffffffffffff16815260200190815260200160002060010160006101000a81548173ffffffffffffffffffffffffffffffffffffffff021916908373ffffffffffffffffffffffffffffffffffffffff16021790555060023390806001815401808255809150509060018203906000526020600020016000909192909190916101000a81548173ffffffffffffffffffffffffffffffffffffffff021916908373ffffffffffffffffffffffffffffffffffffffff160217905550505b5050565b600560009054906101000a900473ffffffffffffffffffffffffffffffffffffffff1673ffffffffffffffffffffffffffffffffffffffff163373ffffffffffffffffffffffffffffffffffffffff161461081a57610876565b6001600460008373ffffffffffffffffffffffffffffffffffffffff1673ffffffffffffffffffffffffffffffffffffffff16815260200190815260200160002060010160146101000a81548160ff0219169083151502179055505b50565b6060806002805490506040519080825280602002602001820160405280156108bb57816020015b6108a86114d0565b8152602001906001900390816108a05790505b50905060008090505b8151811015610a9e5760046000600283815481106108de57fe5b9060005260206000200160009054906101000a900473ffffffffffffffffffffffffffffffffffffffff1673ffffffffffffffffffffffffffffffffffffffff1673ffffffffffffffffffffffffffffffffffffffff168152602001908152602001600020604051806080016040529081600082018054600181600116156101000203166002900480601f0160208091040260200160405190810160405280929190818152602001828054600181600116156101000203166002900480156109e75780601f106109bc576101008083540402835291602001916109e7565b820191906000526020600020905b8154815290600101906020018083116109ca57829003601f168201915b505050505081526020016001820160009054906101000a900473ffffffffffffffffffffffffffffffffffffffff1673ffffffffffffffffffffffffffffffffffffffff1673ffffffffffffffffffffffffffffffffffffffff1681526020016001820160149054906101000a900460ff161515151581526020016001820160159054906101000a900460ff161515151581525050828281518110610a8857fe5b60200260200101819052508060010190506108c4565b819250505090565b6000600560009054906101000a900473ffffffffffffffffffffffffffffffffffffffff1673ffffffffffffffffffffffffffffffffffffffff163373ffffffffffffffffffffffffffffffffffffffff1614905090565b6060600460003373ffffffffffffffffffffffffffffffffffffffff1673ffffffffffffffffffffffffffffffffffffffff1681526020019081526020016000206000018054600181600116156101000203166002900480601f016020809104026020016040519081016040528092919081815260200182805460018160011615610100020316600290048015610bd65780601f10610bab57610100808354040283529160200191610bd6565b820191906000526020600020905b815481529060010190602001808311610bb957829003601f168201915b5050505050905090565b600083604051610bf09190611c77565b908152602001604051809103902060030160149054906101000a900460ff1615610c1957610e50565b60001515600460003373ffffffffffffffffffffffffffffffffffffffff1673ffffffffffffffffffffffffffffffffffffffff16815260200190815260200160002060010160149054906101000a900460ff1615151415610c7a57610e50565b610c82611512565b82816000018190525083816020018190525081816040018190525033816060019073ffffffffffffffffffffffffffffffffffffffff16908173ffffffffffffffffffffffffffffffffffffffff1681525050600181608001901515908115158152505080600085604051610cf79190611c77565b90815260200160405180910390206000820151816000019080519060200190610d21929190611559565b506020820151816001019080519060200190610d3e929190611559565b506040820151816002019080519060200190610d5b929190611559565b5060608201518160030160006101000a81548173ffffffffffffffffffffffffffffffffffffffff021916908373ffffffffffffffffffffffffffffffffffffffff16021790555060808201518160030160146101000a81548160ff021916908315150217905550905050600160003373ffffffffffffffffffffffffffffffffffffffff1673ffffffffffffffffffffffffffffffffffffffff168152602001908152602001600020849080600181540180825580915050906001820390600052602060002001600090919290919091509080519060200190610e409291906115d9565b5050600160035401600381905550505b505050565b60606000600280549050111561142c5760008060008090506060600354604051908082528060200260200182016040528015610eab57816020015b610e98611659565b815260200190600190039081610e905790505b509050600093505b6002805490508410156114205760606001600060028781548110610ed357fe5b9060005260206000200160009054906101000a900473ffffffffffffffffffffffffffffffffffffffff1673ffffffffffffffffffffffffffffffffffffffff1673ffffffffffffffffffffffffffffffffffffffff168152602001908152602001600020805480602002602001604051908101604052809291908181526020016000905b82821015611014578382906000526020600020018054600181600116156101000203166002900480601f0160208091040260200160405190810160405280929190818152602001828054600181600116156101000203166002900480156110005780601f10610fd557610100808354040283529160200191611000565b820191906000526020600020905b815481529060010190602001808311610fe357829003601f168201915b505050505081526020019060010190610f58565b505050509050600093505b805184101561141457600081858151811061103657fe5b602002602001015160405161104b9190611c60565b90815260200160405180910390206040518060a0016040529081600082018054600181600116156101000203166002900480601f0160208091040260200160405190810160405280929190818152602001828054600181600116156101000203166002900480156110fd5780601f106110d2576101008083540402835291602001916110fd565b820191906000526020600020905b8154815290600101906020018083116110e057829003601f168201915b50505050508152602001600182018054600181600116156101000203166002900480601f01602080910402602001604051908101604052809291908181526020018280546001816001161561010002031660029004801561119f5780601f106111745761010080835404028352916020019161119f565b820191906000526020600020905b81548152906001019060200180831161118257829003601f168201915b50505050508152602001600282018054600181600116156101000203166002900480601f0160208091040260200160405190810160405280929190818152602001828054600181600116156101000203166002900480156112415780601f1061121657610100808354040283529160200191611241565b820191906000526020600020905b81548152906001019060200180831161122457829003601f168201915b505050505081526020016003820160009054906101000a900473ffffffffffffffffffffffffffffffffffffffff1673ffffffffffffffffffffffffffffffffffffffff1673ffffffffffffffffffffffffffffffffffffffff1681526020016003820160149054906101000a900460ff1615151515815250508284815181106112c757fe5b60200260200101516000018190525060046000600287815481106112e757fe5b9060005260206000200160009054906101000a900473ffffffffffffffffffffffffffffffffffffffff1673ffffffffffffffffffffffffffffffffffffffff1673ffffffffffffffffffffffffffffffffffffffff1681526020019081526020016000206000018054600181600116156101000203166002900480601f0160208091040260200160405190810160405280929190818152602001828054600181600116156101000203166002900480156113e35780601f106113b8576101008083540402835291602001916113e3565b820191906000526020600020905b8154815290600101906020018083116113c657829003601f168201915b50505050508284815181106113f457fe5b60200260200101516020018190525082600101925083600101935061101f565b50836001019350610eb3565b8094505050505061142d565b5b90565b6040518060400160405280611443611679565b8152602001606081525090565b828054600181600116156101000203166002900490600052602060002090601f016020900481019282601f1061149157803560ff19168380011785556114bf565b828001600101855582156114bf579182015b828111156114be5782358255916020019190600101906114a3565b5b5090506114cc91906116c0565b5090565b604051806080016040528060608152602001600073ffffffffffffffffffffffffffffffffffffffff1681526020016000151581526020016000151581525090565b6040518060a00160405280606081526020016060815260200160608152602001600073ffffffffffffffffffffffffffffffffffffffff1681526020016000151581525090565b828054600181600116156101000203166002900490600052602060002090601f016020900481019282601f1061159a57805160ff19168380011785556115c8565b828001600101855582156115c8579182015b828111156115c75782518255916020019190600101906115ac565b5b5090506115d591906116c0565b5090565b828054600181600116156101000203166002900490600052602060002090601f016020900481019282601f1061161a57805160ff1916838001178555611648565b82800160010185558215611648579182015b8281111561164757825182559160200191906001019061162c565b5b50905061165591906116c0565b5090565b604051806040016040528061166c611679565b8152602001606081525090565b6040518060a00160405280606081526020016060815260200160608152602001600073ffffffffffffffffffffffffffffffffffffffff1681526020016000151581525090565b6116e291905b808211156116de5760008160009055506001016116c6565b5090565b90565b6000813590506116f481611ed0565b92915050565b60008083601f84011261170c57600080fd5b8235905067ffffffffffffffff81111561172557600080fd5b60208301915083600182028301111561173d57600080fd5b9250929050565b600082601f83011261175557600080fd5b813561176861176382611d5e565b611d31565b9150808252602083016020830185838301111561178457600080fd5b61178f838284611e7d565b50505092915050565b6000602082840312156117aa57600080fd5b60006117b8848285016116e5565b91505092915050565b600080602083850312156117d457600080fd5b600083013567ffffffffffffffff8111156117ee57600080fd5b6117fa858286016116fa565b92509250509250929050565b60006020828403121561181857600080fd5b600082013567ffffffffffffffff81111561183257600080fd5b61183e84828501611744565b91505092915050565b60008060006060848603121561185c57600080fd5b600084013567ffffffffffffffff81111561187657600080fd5b61188286828701611744565b935050602084013567ffffffffffffffff81111561189f57600080fd5b6118ab86828701611744565b925050604084013567ffffffffffffffff8111156118c857600080fd5b6118d486828701611744565b9150509250925092565b60006118ea8383611af1565b905092915050565b60006118fe8383611c1c565b905092915050565b61190f81611e3f565b82525050565b600061192082611daa565b61192a8185611df0565b93508360208202850161193c85611d8a565b8060005b85811015611978578484038952815161195985826118de565b945061196483611dd6565b925060208a01995050600181019050611940565b50829750879550505050505092915050565b600061199582611db5565b61199f8185611e01565b9350836020820285016119b185611d9a565b8060005b858110156119ed57848403895281516119ce85826118f2565b94506119d983611de3565b925060208a019950506001810190506119b5565b50829750879550505050505092915050565b611a0881611e51565b82525050565b611a1781611e51565b82525050565b6000611a2882611dcb565b611a328185611e23565b9350611a42818560208601611e8c565b611a4b81611ebf565b840191505092915050565b6000611a6182611dcb565b611a6b8185611e34565b9350611a7b818560208601611e8c565b80840191505092915050565b6000611a9282611dc0565b611a9c8185611e12565b9350611aac818560208601611e8c565b611ab581611ebf565b840191505092915050565b6000611acb82611dc0565b611ad58185611e34565b9350611ae5818560208601611e8c565b80840191505092915050565b60006080830160008301518482036000860152611b0e8282611a87565b9150506020830151611b236020860182611906565b506040830151611b3660408601826119ff565b506060830151611b4960608601826119ff565b508091505092915050565b600060a0830160008301518482036000860152611b718282611a87565b91505060208301518482036020860152611b8b8282611a87565b91505060408301518482036040860152611ba58282611a87565b9150506060830151611bba6060860182611906565b506080830151611bcd60808601826119ff565b508091505092915050565b60006040830160008301518482036000860152611bf58282611b54565b91505060208301518482036020860152611c0f8282611a87565b9150508091505092915050565b60006040830160008301518482036000860152611c398282611b54565b91505060208301518482036020860152611c538282611a87565b9150508091505092915050565b6000611c6c8284611ac0565b915081905092915050565b6000611c838284611a56565b915081905092915050565b60006020820190508181036000830152611ca88184611915565b905092915050565b60006020820190508181036000830152611cca818461198a565b905092915050565b6000602082019050611ce76000830184611a0e565b92915050565b60006020820190508181036000830152611d078184611a1d565b905092915050565b60006020820190508181036000830152611d298184611bd8565b905092915050565b6000604051905081810181811067ffffffffffffffff82111715611d5457600080fd5b8060405250919050565b600067ffffffffffffffff821115611d7557600080fd5b601f19601f8301169050602081019050919050565b6000819050602082019050919050565b6000819050602082019050919050565b600081519050919050565b600081519050919050565b600081519050919050565b600081519050919050565b6000602082019050919050565b6000602082019050919050565b600082825260208201905092915050565b600082825260208201905092915050565b600082825260208201905092915050565b600082825260208201905092915050565b600081905092915050565b6000611e4a82611e5d565b9050919050565b60008115159050919050565b600073ffffffffffffffffffffffffffffffffffffffff82169050919050565b82818337600083830152505050565b60005b83811015611eaa578082015181840152602081019050611e8f565b83811115611eb9576000848401525b50505050565b6000601f19601f8301169050919050565b611ed981611e3f565b8114611ee457600080fd5b5056fea365627a7a7231582032ef68d881032ac1da350a644968e7a17d69896b1732deb59202a9c77c151d546c6578706572696d656e74616cf564736f6c63430005100040",
  "source": "pragma solidity ^0.5.0;\r\npragma experimental ABIEncoderV2;\r\n\r\ncontract FilesStorage {\r\n\r\n    struct informeData{\r\n        string title;\r\n        string hashValue;\r\n        string CID;\r\n        address owner;\r\n        bool exists;\r\n    }\r\n\r\n    struct entity{\r\n        string name;\r\n        address entityAddress;\r\n        bool approved;\r\n        bool exists;\r\n    }\r\n\r\n    struct informeRet{\r\n        informeData informe;\r\n        string entidad;\r\n    }\r\n\r\n    mapping(string => informeData) informes;\r\n    mapping(address => string[]) propietarios;\r\n    address[] arrayPropietarios;\r\n    uint nInformes;\r\n    mapping(address => entity) entityNames;\r\n\r\n    address owner;\r\n\r\n    constructor() public {\r\n        owner = msg.sender;\r\n    }\r\n\r\n    function registerEntity(string calldata name) external{\r\n        if (entityNames[msg.sender].exists) return;\r\n        else {\r\n            entityNames[msg.sender].exists = true;\r\n            entityNames[msg.sender].name = name;\r\n            entityNames[msg.sender].entityAddress = msg.sender;\r\n            arrayPropietarios.push(msg.sender);\r\n        }\r\n    }\r\n\r\n    function approveEntity(address entityAddress) external{\r\n        if(msg.sender != owner) return;\r\n        else {\r\n            entityNames[entityAddress].approved = true; \r\n        }\r\n    }\r\n\r\n    function getAllEntities() external returns(entity[] memory){\r\n        entity[] memory ret = new entity[](arrayPropietarios.length);\r\n        uint i;\r\n        for(i=0; i< ret.length; ++i){\r\n            ret[i] = entityNames[arrayPropietarios[i]];\r\n        }\r\n        return ret;\r\n    } \r\n\r\n    function isOwner() external returns(bool){\r\n        return msg.sender == owner;\r\n    }\r\n\r\n    function isApprovedEntity() external returns(bool){\r\n        return entityNames[msg.sender].approved;\r\n    }\r\n\r\n    function getMyEntityName() external returns(string memory){\r\n        return entityNames[msg.sender].name;\r\n    }\r\n\r\n    function registerInforme(string memory hashValue, string memory title, string memory CID) public{\r\n        if(informes[hashValue].exists) return;\r\n        else if(entityNames[msg.sender].approved == false) return;\r\n        else {\r\n            informeData memory data;\r\n            data.title = title;\r\n            data.hashValue = hashValue;\r\n            data.CID = CID;\r\n            data.owner = msg.sender;\r\n            data.exists = true;\r\n            informes[hashValue] = data;\r\n            propietarios[msg.sender].push(hashValue);\r\n            nInformes = nInformes+1;\r\n            // if(propietarios[msg.sender].length == 1) { //first time\r\n            //     arrayPropietarios.push(msg.sender);\r\n            // }\r\n        }\r\n    }\r\n\r\n    function getInforme(string memory hashValue) public view returns(informeRet memory){\r\n        informeRet memory ret;\r\n        ret.informe = informes[hashValue];\r\n        ret.entidad = entityNames[informes[hashValue].owner].name;\r\n        return ret;\r\n    }\r\n\r\n    function getAllInformes() public view returns(informeRet[] memory){\r\n        if(arrayPropietarios.length > 0){\r\n            uint i;\r\n            uint j;\r\n            uint k = 0;\r\n            informeRet[] memory ret = new informeRet[](nInformes);\r\n            for(i=0; i<arrayPropietarios.length; ++i){\r\n                string[] memory files = propietarios[arrayPropietarios[i]];\r\n                for(j=0; j<files.length; ++j){\r\n                    ret[k].informe = informes[files[j]];\r\n                    ret[k].entidad = entityNames[arrayPropietarios[i]].name;\r\n                    ++k;\r\n                }\r\n            }\r\n            return ret;\r\n        }\r\n    }\r\n\r\n    // function getAllInformes() public view returns(informeData[] memory){\r\n    //     if(arrayPropietarios.length > 0){\r\n    //         uint i;\r\n    //         uint j;\r\n    //         uint k = 0;\r\n    //         informeData[] memory ret = new informeData[](nInformes);\r\n    //         for(i=0; i<arrayPropietarios.length; ++i){\r\n    //             string[] memory files = propietarios[arrayPropietarios[i]];\r\n    //             for(j=0; j<files.length; ++j){\r\n    //                 ret[k] = informes[files[j]];\r\n    //                 ++k;\r\n    //             }\r\n    //         }\r\n    //         return ret;\r\n    //     }\r\n    // }\r\n\r\n\r\n}\r\n",
  "sourcePath": "/home/ubuntu/TFG_FL/contracts/FilesStorage.sol",
  "compiler": {
    "name": "solc",
    "version": "0.5.16+commit.9c3226ce.Emscripten.clang"
  },
  "schemaVersion": "3.3.4",
  "updatedAt": "2021-06-21T09:48:12.217Z",
  "networkType": "ethereum",
  "devdoc": {
    "methods": {}
  },
  "userdoc": {
    "methods": {}
  }
}